:1000000019C1000047C1000045C1000043C1000004
:1000100041C100003FC100003DC100003BC10000E4
:1000200039C1000037C1000035C1000033C10000F4
:1000300031C100002FC100002DC100002BC1000004
:1000400029C1000027C1000025C1000023C1000014
:1000500021C100001FC100001DC1000017C6000023
:1000600019C10000DDC50000B2C5000013C10000C9
:1000700011C100000FC100000DC100000BC1000044
:1000800009C1000007C1000005C1000003C1000054
:1000900001C10000FFC00000FDC0000041C600001B
:1000A000F9C00000F7C00000F5C00000F3C0000078
:1000B000F1C00000EFC00000EDC00000EBC0000088
:1000C000E9C00000E7C00000E5C00000E3C0000098
:1000D000E1C00000DFC00000DDC00000DBC00000A8
:1000E000D9C00000E202E502D402D802DC021C03FF
:1000F000E902ED02F302F702FB0201030503090323
:100100001C030F031303170355035A035F0369030B
:100110007303EC037D0385038D039703A103AB03F6
:10012000BA03C403EC03CE03D803E20300000A0BB6
:1001300002090C0D0E080703040100000000000076
:1001400000000000000000000000000000000000AF
:10015000000000000000000012111000000000006C
:10016000000000000000000000000000000000008F
:10017000000000002200250028002B002E00310086
:10018000340002010000050108010B0100002100FC
:10019000240027002A002D00300033000101000058
:1001A000040107010A0105050505070508080808F7
:1001B000020202020A0A08080404040401010101FF
:1001C00001010101030303030303030304070707FA
:1001D0000C0C0C0C0C0C0C0C02020202060606069F
:1001E000060606060B0B0B0B0B0B0B0B010210206C
:1001F000200808102040102040800201020108045D
:1002000002010102040810204080804020100804F0
:100210000201800402018040201008040201080449
:10022000020101020408102040800102040810208D
:100230004080C10711241FBECFEFD1E2DEBFCDBF8A
:1002400000E00CBF12E0A0E0B2E0E0EFF7E100E078
:100250000BBF02C007900D92A43EB107D9F724E06E
:10026000A4EEB2E001C01D92AB35B207E1F711E098
:10027000CAE1D1E000E006C021970109802FFE010C
:100280000E94A10AC931D10780E00807A9F7C4D6A6
:100290000C94F60BB5CEEAE6F3E0A089B18982E0D2
:1002A0008C93A485B5851C92A685B7858FEC8C931D
:1002B000108EA489B58986E08C93A289B3898C912C
:1002C00080618C93A289B3898C9188608C93A28978
:1002D000B3898C9180688C930288F389E02D8081AA
:1002E0008F7D8083089590E0FC01E451FE4F2491BE
:1002F000FC01EA55FE4F8491882399F090E0880F25
:10030000991FFC01E457FE4FA591B491FC01EE58F2
:10031000FE4F859194918FB7F894EC91E22BEC937A
:100320008FBF0895CF92DF92EF92FF920F931F93AA
:10033000CF93DF936C017A018B01C0E0D0E0CE1542
:10034000DF0589F0D8016D918D01D601ED91FC9109
:100350000190F081E02DC6011995892B11F47E01E1
:1003600002C02196ECCFC701DF91CF911F910F9171
:10037000FF90EF90DF90CF900895FC01918D828DDA
:10038000981761F0828DDF01A80FB11D5D968C91E9
:10039000928D9F5F9F73928F90E008958FEF9FEFF4
:1003A0000895FC01918D828D981731F0828DE80FB0
:1003B000F11D858D90E008958FEF9FEF0895FC016A
:1003C000918D228D892F90E0805C9F4F821B910937
:1003D0008F73992708958AE693E0F1DF21E0892B56
:1003E00009F420E0822F0895FC01848DDF01A80F1D
:1003F000B11DA35ABF4F2C91848D90E001968F734D
:100400009927848FA689B7892C93A089B1898C916B
:1004100080648C93938D848D981306C00288F38931
:10042000E02D80818F7D80830895EF92FF920F935E
:100430001F93CF93DF93EC0181E0888F9B8D8C8D90
:10044000981305C0E889F989808185FD23C0F62EBF
:100450000B8D10E00F5F1F4F0F731127E02E8C8D57
:10046000E8120BC00FB607FCFACFE889F989808142
:1004700085FFF5CFCE01B8DFF2CF8B8DFE01E80FFF
:10048000F11DE35AFF4FF0820B8FEA89FB898081CF
:10049000806207C0EE89FF896083E889F9898081DD
:1004A0008064808381E090E0DF91CF911F910F9174
:1004B000FF90EF900895CF93DF93EC01888D882310
:1004C000C1F0EA89FB89808185FD05C0A889B989C9
:1004D0008C9186FD0EC00FB607FCF5CF808185FF9D
:1004E000F2CFA889B9898C9185FFEDCFCE017CDF51
:1004F000E8CFDF91CF91089580E090E0892B19F04B
:100500006ADF811125C080E090E0892B41F080E016
:1005100090E0892B21F00E94000081111CC080E036
:1005200090E0892B41F080E090E0892B21F00E943F
:100530000000811113C080E090E0892BA1F080E0E1
:1005400090E0892B81F00E94000081110AC008957B
:100550000E940000D8CF0E940000E1CF0E9400005E
:10056000EACF0C9400000895362F90E0FC01E45D82
:10057000FE4F4491FC01E451FE4F2491FC01EA55E9
:10058000FE4F9491992309F46AC0442309F454C09E
:1005900050E0FA013197E231F10508F04DC08827AB
:1005A000EE58FF4F8F4FCDC7809180008F7707C0E7
:1005B000809180008F7D03C080918000877F809331
:1005C00080003AC084B58F7702C084B58F7D84BD2A
:1005D00033C08091B0008F7703C08091B0008F7DD1
:1005E0008093B00029C0809190008F7707C08091E0
:1005F00090008F7D03C080919000877F8093900052
:100600001BC08091A0008F7707C08091A0008F7DD4
:1006100003C08091A000877F8093A0000DC08091CF
:1006200020018F7707C0809120018F7D03C08091CA
:100630002001877F80932001E92FF0E0EE0FFF1F5C
:10064000EE58FE4FA591B4918FB7F894EC9131110B
:1006500003C020952E2301C02E2B2C938FBF08950D
:100660001F93CF93DF93182FEB013DDE209711F4FA
:1006700060E004C0CF3FD10531F461E0812FDF910C
:10068000CF911F9171CFE12FF0E0E45DFE4FE49137
:100690004E2F50E0FA013197E231F10508F09CC08D
:1006A0008827EC57FF4F8F4F4CC784B5806884BDB7
:1006B000C7BD97C084B5806284BDC8BD92C080911B
:1006C0008000806880938000D0938900C093880068
:1006D00088C080918000806280938000D0938B00DE
:1006E000C0938A007EC080918000886080938000E3
:1006F000D0938D00C0938C0074C08091B00080684E
:100700008093B000C093B3006CC08091B000806251
:100710008093B000C093B40064C080919000806862
:1007200080939000D0939900C09398005AC0809114
:100730009000806280939000D0939B00C0939A00B9
:1007400050C080919000886080939000D0939D006D
:10075000C0939C0046C08091A00080688093A00058
:100760008091A0008F7B8093A000D093A900C093BC
:10077000A80037C08091A00080628093A000D09331
:10078000AB00C093AA002DC08091A0008860809328
:10079000A000D093AD00C093AC0023C08091200195
:1007A000806880932001D0932901C093280119C04B
:1007B00080912001806280932001D0932B01C0930F
:1007C0002A010FC080912001886080932001D0937E
:1007D0002D01C0932C0105C0C038D1050CF04DCFC0
:1007E00047CFDF91CF911F910895863308F086534C
:1007F00090917B00282F2870977F922B90937B00FD
:100800008770806480937C0080917A0080648093FC
:100810007A0080917A0086FDFCCF8091780020914B
:10082000790090E0922B08953FB7F8948091580397
:1008300090915903A0915A03B0915B0326B5A89BF0
:1008400005C02F3F19F00196A11DB11D3FBFBA2F62
:10085000A92F982F8827820F911DA11DB11DBC01C2
:10086000CD0142E0660F771F881F991F4A95D1F787
:1008700008958F929F92AF92BF92CF92DF92EF92A4
:10088000FF926B017C01D0DF4B015C01C114D104EC
:10089000E104F104E9F0C8DFDC01CB018819990912
:1008A000AA09BB09883E9340A105B10578F321E070
:1008B000C21AD108E108F10888EE880E83E0981E7C
:1008C000A11CB11CC114D104E104F10421F7DECF55
:1008D000FF90EF90DF90CF90BF90AF909F908F9060
:1008E00008952FB7F8946091540370915503809147
:1008F0005603909157032FBF089585ED8093BC0058
:100900008091BC0084FDFCCF10922D03089540918E
:100910000703262F30E0240F311D21323105DCF48E
:1009200020912D032430C9F4FC0180E090E086176B
:1009300058F4309107032191DC01AB51BD4FA30F57
:10094000B11D2C930196F3CF80910703680F60933C
:10095000070380E0089581E0089582E008950895F6
:100960008FEF9FEF08958FEF9FEF08958091E4023E
:1009700090E09195819591090895CF93DF931F920F
:100980001F92CDB7DEB7CB01642F49835A83BFDFF7
:100990004981842F5A81952F0F900F90DF91CF912D
:1009A0000895CF93DF931F92CDB7DEB7698361E0DF
:1009B000CE010196ACDF81E090E00F90DF91CF9106
:1009C0000895209162033091630382179307C1F069
:1009D000209160033091610382179307A1F0209169
:1009E0005E0330915F038217930781F020915C03CF
:1009F00030915D038217930761F080E090E00895E5
:100A000081E090E0089582E090E0089583E090E036
:100A1000089584E090E008956115710579F0FB0177
:100A200001900020E9F73197AF01461B570BDC011D
:100A3000ED91FC910280F381E02D199480E090E02B
:100A400008954F925F926F927F92EF92FF920F9371
:100A50001F93CF93DF93CDB7DEB7A1970FB6F8946E
:100A6000DEBF0FBECDBF7C01FA01CB0119A222303F
:100A700008F42AE08E010F5D1F4F422E512C612C8D
:100A8000712CBF01A30192018FD6F901CA01015057
:100A900011096A3014F4605D01C0695CD8016C937F
:100AA000232B242B252B69F7B801C701B5DFA196AD
:100AB0000FB6F894DEBF0FBECDBFDF91CF911F916F
:100AC0000F91FF90EF907F906F905F904F900895FF
:100AD000CF92DF92EF92FF920F931F93CF93DF930A
:100AE000EC016A017B01E881F9810190F081E02D40
:100AF0006DE219958C0144275527BA014C195D09FF
:100B00006E097F092AE0CE019CDF800F911FDF91E3
:100B1000CF911F910F91FF90EF90DF90CF900895AC
:100B2000AB01770F660B770B77FDD2CF2AE089CF29
:100B300073CF0F931F93CF93DF938B01EA01223082
:100B4000310501F184F42115310591F12130310590
:100B500009F037C0BC0182E083DDB80183E080DDAD
:100B6000BE0184E017C023303105C9F024303105BF
:100B700041F5BC018BE074DDB8018CE071DDBE0194
:100B80008DE008C0BC0185E06BDDB80186E068DD62
:100B9000BE0187E0DF91CF911F910F9161CDBC0124
:100BA00088E05EDDB80189E05BDDBE018AE0F2CF5E
:100BB00060E272E08AE693E0DF91CF911F910F919E
:100BC000B7CFDF91CF911F910F9108955BD51F9201
:100BD0000F920FB60F9211240BB60F922F933F93E3
:100BE0004F935F936F937F938F939F93AF93BF9335
:100BF000EF93FF938AE693E0F7DBFF91EF91BF91CC
:100C0000AF919F918F917F916F915F914F913F91A4
:100C10002F910F900BBE0F900FBE0F901F90189545
:100C20001F920F920FB60F9211240BB60F922F93B3
:100C30008F939F93EF93FF93E0917A03F0917B035F
:100C40008081E0918003F091810382FD12C0908148
:100C5000809183038F5F8F7320918403821751F0FB
:100C6000E0918303F0E0E659FC4F958F8093830376
:100C700001C08081FF91EF919F918F912F910F90F3
:100C80000BBE0F900FBE0F901F9018951F920F92E2
:100C90000FB60F9211242F933F938F939F93AF938F
:100CA000BF938091540390915503A0915603B09146
:100CB00057033091530323E0230F2D3720F401967F
:100CC000A11DB11D05C026E8230F0296A11DB11D6F
:100CD000209353038093540390935503A09356039A
:100CE000B09357038091580390915903A0915A03F0
:100CF000B0915B030196A11DB11D809358039093A1
:100D00005903A0935A03B0935B03BF91AF919F9196
:100D10008F913F912F910F900FBE0F901F901895BC
:100D20001F920F920FB60F9211240BB60F922F93B2
:100D30003F934F935F936F937F938F939F93AF9363
:100D4000BF93EF93FF938091B900887F803609F4B9
:100D50009CC068F5883209F45BC090F4803109F4D6
:100D600054C038F4882309F4F6C0883009F44DC023
:100D7000F5C0883109F44CC0803209F45DC0EEC082
:100D8000803409F468C048F4803309F455C08833CE
:100D900009F0E4C080932C03D8C0803509F44FC01B
:100DA000883509F45DC0883409F0D8C0D6C08839C8
:100DB00009F4C7C0A8F4883709F467C038F4883646
:100DC00009F463C0803709F460C0C8C0883809F4EA
:100DD000B8C0803909F45FC0803809F0BFC05BC07B
:100DE000803B09F486C038F4803A09F466C0883A3A
:100DF00009F47FC0B3C0803C09F4A7C0883C09F463
:100E0000A4C0883B09F48AC0A9C08091520310C0D5
:100E10009091510380915003981770F5E091510320
:100E200081E08E0F80935103F0E0E05DFC4F808104
:100E30008093BB0085EC86C080932C038EC0E0912C
:100E4000510381E08E0F809351038091BB00F0E04D
:100E5000E05DFC4F808390915103809150036EC000
:100E6000E091510381E08E0F809351038091BB008C
:100E7000F0E0E05DFC4F808380912F0381116DC015
:100E800081E080932E0384EA61C083E080932D0388
:100E900010922B03CFCF80912B03803208F051C0EA
:100EA000E0912B0381E08E0F80932B038091BB0098
:100EB000F0E0E55FFC4F8083BDCF85EC8093BC0004
:100EC00010922D0380912B03803230F4E0912B039C
:100ED000F0E0E55FFC4F108260912B0370E0E09141
:100EE0000903F0910A038BE093E0199510922B030C
:100EF00035C084E080932D031092080310920703FD
:100F0000E0910503F0910603199580910703811183
:100F100005C081E0809307031092E502E091080389
:100F200081E08E0F80930803F0E0EB51FD4F80814C
:100F30008093BB009091080380910703981708F4F1
:100F400079CF85E88093BC0009C085EC8093BC0014
:100F500010922D0303C010922C03CFDCFF91EF9170
:100F6000BF91AF919F918F917F916F915F914F91C1
:100F70003F912F910F900BBE0F900FBE0F901F90BF
:100F80001895EAE6F3E01382128288EE93E0A0E07F
:100F9000B0E084839583A683B78324E032E0318375
:100FA000208325EC30E03587248724EC30E0378738
:100FB000268720EC30E0318B208B21EC30E0338B26
:100FC000228B22EC30E0358B248B26EC30E0378B03
:100FD000268B118E128E138E148EE7E0F4E01682AB
:100FE0001782108611861286138614861586168639
:100FF0001786108A118A128A138A148A158AEFE4D6
:10100000F4E01382128284839583A683B78384E1FC
:1010100092E0918380830895CF93DF93CDB7DEB7BD
:1010200028970FB6F894DEBF0FBECDBF789484B575
:10103000826084BD84B5816084BD85B5826085BDD4
:1010400085B5816085BD80916E00816080936E0062
:101050001092810080918100826080938100809154
:101060008100816080938100809180008160809305
:1010700080008091B10084608093B1008091B000C5
:1010800081608093B0008091910082608093910094
:1010900080919100816080939100809190008160A7
:1010A000809390008091A10082608093A100809144
:1010B000A10081608093A1008091A0008160809355
:1010C000A000809121018260809321018091210103
:1010D00081608093210180912001816080932001B3
:1010E00080917A00846080937A0080917A00826097
:1010F00080937A0080917A00816080937A00809159
:101100007A00806880937A001092C10010924B049C
:1011100010924C0410924D0410924E041092090447
:1011200010920A0410920B0410920C0460ED77E008
:1011300080E090E09EDB8AE693E090934A048093FF
:101140004904A9D8CEDB6093090470930A04809304
:101150000B0490930C046FE672E080914904909127
:101160004A04E6DC6AE070E080E090E082DB81E047
:1011700080931D04B6DB0091090410910A042091AC
:101180000B0430910C04DC01CB01801B910BA20BF2
:10119000B30BC297A105B10530F463E070E080E0C5
:1011A00090E067DBE7CF9DDB6093090470930A044E
:1011B00080930B0490930C0461E872E080914904E1
:1011C00090914A04B5DC68E872E0809149049091FE
:1011D0004A04AEDC68E872E08091490490914A04C8
:1011E000A7DC68E872E08091490490914A04A0DC91
:1011F00068E872E08091490490914A0499DC6AE8B9
:1012000072E08091490490914A0492DC6AE070E0B7
:1012100080E090E02EDB3FD812E0812F64D81F5F82
:101220001E30D9F715E05DDBC0906603D0906703F0
:10123000E0906803F0906903DC01CB018C199D09F3
:10124000AE09BF0986399105A105B10508F462C050
:1012500048DB609366037093670380936803909301
:10126000690361E070E080E090E003DB3ADB6093CB
:10127000090470930A0480930B0490930C0461E8B2
:1012800072E08091490490914A0452DC68E872E06F
:101290008091490490914A044BDC68E872E08091A7
:1012A000490490914A0444DC00E0802F9EDAAC01AE
:1012B0008091490490914A04052E000C660B770B2F
:1012C00077FF02C005DC02C02AE0BBDB63E972E005
:1012D0008091490490914A042BDC0F5F003129F77B
:1012E00068E872E08091490490914A0421DC68E842
:1012F00072E08091490490914A041ADC6AE872E035
:101300008091490490914A0413DC61E070E080E030
:1013100090E0AFDA80E069DA9C01129FC001139F70
:10132000900D1124BC01990F880B990BB1D123E3C7
:1013300033E34BEC51E40DD174D170935F036093B0
:101340005E0381E052DA9C01129FC001139F900D51
:101350001124BC01990F880B990B9AD123E333E335
:101360004BEC51E4F6D05DD170935D0360935C0368
:1013700082E03BDA9C01129FC001139F900D112463
:10138000BC01990F880B990B83D123E333E34BEC1A
:1013900051E4DFD046D1709363036093620383E02E
:1013A00024DA9C01129FC001139F900D1124BC01EF
:1013B000990F880B990B6CD123E333E34BEC51E489
:1013C000C8D02FD17093610360936003E12CF12C9E
:1013D00085E6E816F1040CF44DC065E972E08AE692
:1013E00093E0A6DB60916203709163038AE693E069
:1013F00097DB6AEA72E08AE693E09ADB6FEA72E0D2
:101400008AE693E095DB60916003709161038AE660
:1014100093E086DB6AEA72E08AE693E089DB60E9C2
:1014200072E08AE693E0F8DA64EC72E08AE693E030
:101430007FDB60915E0370915F038AE693E070DB6F
:101440006AEA72E08AE693E073DB64ED72E08AE6B2
:1014500093E06EDB60915C0370915D038AE693E03C
:101460005FDB6AEA72E08AE693E062DB3FEFE31A51
:10147000F30AAECF809164039091650301968430A6
:1014800091052CF4909365038093640304C010923B
:1014900065031092640380916203909163039A83C1
:1014A000898380916003909161039C838B838091F9
:1014B0005E0390915F039E838D8380915C03909186
:1014C0005D0398878F83E0916403F0916503EE0FCD
:1014D000FF1F21E030E02C0F3D1FE20FF31F808142
:1014E00091818C3231E0930714F588329105B4F480
:1014F0008C3091054CF465DA9C0140E050E060E0EE
:1015000070E08FEF90E008C05CDA9C014FEF50E094
:1015100060E070E080E090E00CDB10C052DA9C01EB
:1015200040E050E06FEF70E080E090E002DB60911F
:101530006403709165038AE693E0F2DA0E947C020C
:1015400072CEEE0FFF1F881F8BBF0790F691E02D24
:1015500019940CD0EFC0E7D040F0DED030F021F489
:101560005F3F19F0D0C0511119C1D3C0F4D098F326
:101570009923C9F35523B1F3951B550BBB27AA2714
:1015800062177307840738F09F5F5F4F220F331F86
:10159000441FAA1FA9F333D00E2E3AF0E0E830D052
:1015A00091505040E695001CCAF729D0FE2F27D055
:1015B000660F771F881FBB1F261737074807AB0723
:1015C000B0E809F0BB0B802DBF01FF2793585F4F98
:1015D0002AF09E3F510568F096C0E0C05F3FECF3F3
:1015E000983EDCF3869577956795B795F7959F5F5D
:1015F000C9F7880F911D9695879597F90895E1E0B1
:10160000660F771F881FBB1F621773078407BA070F
:1016100020F0621B730B840BBA0BEE1F88F7E0956A
:10162000089504D06894B111B9C008959CD088F091
:101630009F5790F0B92F9927B751A0F0D1F0660FBE
:10164000771F881F991F1AF0BA95C9F712C0B130D9
:1016500081F0A3D0B1E00895A0C0672F782F88272C
:10166000B85F39F0B93FCCF3869577956795B39518
:10167000D9F73EF490958095709561957F4F8F4F87
:101680009F4F089581E090E0F894B0C0E89409C0BD
:1016900097FB3EF490958095709561957F4F8F4FA5
:1016A0009F4F9923A9F0F92F96E9BB279395F695BB
:1016B000879577956795B795F111F8CFFAF4BB0F39
:1016C00011F460FF1BC06F5F7F4F8F4F9F4F16C09D
:1016D000882311F096E911C0772321F09EE8872F27
:1016E000762F05C0662371F096E8862F70E060E0E3
:1016F0002AF09A95660F771F881FDAF7880F96955C
:10170000879597F9089597F99F6780E870E060E002
:1017100008959FEF80EC089500240A94161617068A
:1017200018060906089500240A94121613061406D2
:1017300005060895092E0394000C11F4882352F035
:10174000BB0F40F4BF2B11F460FF04C06F5F7F4FED
:101750008F4F9F4F089557FD9058440F551F59F0D4
:101760005F3F71F04795880F97FB991F61F09F3F8E
:1017700079F087950895121613061406551FF2CFB7
:101780004695F1DF08C0161617061806991FF1CF07
:1017900086957105610508940895E894BB2766272E
:1017A0007727CB0197F90895A1E21A2EAA1BBB1B3C
:1017B000FD010DC0AA1FBB1FEE1FFF1FA217B3071D
:1017C000E407F50720F0A21BB30BE40BF50B661F33
:1017D000771F881F991F1A9469F7609570958095F7
:1017E00090959B01AC01BD01CF010895F894FFCF06
:1017F0000000000015029201DF01BD01D1015B0272
:1018000000000000D104BD04B604B304B004AF046A
:10181000536572696F75732070726F626C656D21AC
:10182000205468697320636173652073686F756CF9
:1018300064206E65766572206265207365656E2032
:10184000616E6420697320666F7220746573742002
:10185000707572706F736573206F6E6C79210056AE
:101860004D4450565F317C315F564D4450560D0A01
:1018700000564D4450525F007C005F564D4450521C
:101880000D0A003A00556C747261736F6E696320C3
:1018900053656E736F722031200020696E09005508
:1018A0006C747261736F6E69632053656E736F72CF
:1018B000203220004C617365722053656E736F7225
:1018C000203120004C617365722053656E736F7216
:0418D00020322000A2
:00000001FF
