:1000000019C1000046C1000044C1000042C1000007
:1000100040C100003EC100003CC100003AC10000E8
:1000200038C1000036C1000034C1000032C10000F8
:1000300030C100002EC100002CC100002AC1000008
:1000400028C1000026C1000024C1000022C1000018
:1000500020C100001EC100001CC1000025C5000019
:1000600018C1000094C5000069C5000012C100005D
:1000700010C100000EC100000CC100000AC1000048
:1000800008C1000006C1000004C1000002C1000058
:1000900000C10000FEC00000FCC00000AEC50000B2
:1000A000F8C00000F6C00000F4C00000F2C000007C
:1000B000F0C00000EEC00000ECC00000EAC000008C
:1000C000E8C00000E6C00000E4C00000E2C000009C
:1000D000E0C00000DEC00000DCC00000DAC00000AC
:1000E000D8C00000B902BC02AB02AF02B302F302F7
:1000F000C002C402CA02CE02D202D802DC02E0026E
:10010000F302E602EA02EE022C0331033603400357
:100110004A03C30354035C0364036E03780382033E
:1001200091039B03C303A503AF03B90300000A0BAC
:1001300002090C0D0E080703040100000000000076
:1001400000000000000000000000000000000000AF
:10015000000000000000000012111000000000006C
:10016000000000000000000000000000000000008F
:10017000000000002200250028002B002E00310086
:10018000340002010000050108010B0100002100FC
:10019000240027002A002D00300033000101000058
:1001A000040107010A0105050505070508080808F7
:1001B000020202020A0A08080404040401010101FF
:1001C00001010101030303030303030304070707FA
:1001D0000C0C0C0C0C0C0C0C02020202060606069F
:1001E000060606060B0B0B0B0B0B0B0B010210206C
:1001F000200808102040102040800201020108045D
:1002000002010102040810204080804020100804F0
:100210000201800402018040201008040201080449
:10022000020101020408102040800102040810208D
:1002300040802E0711241FBECFEFD1E2DEBFCDBF1D
:1002400000E00CBF12E0A0E0B2E0E8E9F4E100E079
:100250000BBF02C007900D92AA37B107D9F723E070
:10026000AAE7B2E001C01D92A53AB207E1F711E09A
:10027000CAE1D1E000E005C021970109802FFE010D
:10028000D6D7C931D10780E00807B1F720D60C9442
:100290004A0AB6CE90E0FC01E451FE4F2491FC01E5
:1002A000EA55FE4F8491882399F090E0880F991FBA
:1002B000FC01E457FE4FA591B491FC01EE58FE4FAE
:1002C000859194918FB7F894EC91E22BEC938FBFCA
:1002D0000895CF92DF92EF92FF920F931F93CF93E7
:1002E000DF936C017A018B01C0E0D0E0CE15DF0511
:1002F00089F0D8016D918D01D601ED91FC910190AD
:10030000F081E02DC6011995892B11F47E0102C000
:100310002196ECCFC701DF91CF911F910F91FF90F4
:10032000EF90DF90CF900895FC01918D828D98170A
:1003300061F0828DDF01A80FB11D5D968C91928DC9
:100340009F5F9F73928F90E008958FEF9FEF0895C6
:10035000FC01918D828D981731F0828DE80FF11D8F
:10036000858D90E008958FEF9FEF0895FC01918DAA
:10037000228D892F90E0805C9F4F821B91098F73A3
:10038000992708958CEF92E0F1DF21E0892B09F4A1
:1003900020E0822F0895FC01848DDF01A80FB11D9C
:1003A000A35ABF4F2C91848D90E001968F739927AB
:1003B000848FA689B7892C93A089B1898C91806498
:1003C0008C93938D848D981306C00288F389E02D59
:1003D00080818F7D80830895EF92FF920F931F930A
:1003E000CF93DF93EC0181E0888F9B8D8C8D9813E8
:1003F00005C0E889F989808185FD23C0F62E0B8D23
:1004000010E00F5F1F4F0F731127E02E8C8DE81245
:100410000BC00FB607FCFACFE889F989808185FF08
:10042000F5CFCE01B8DFF2CF8B8DFE01E80FF11DC5
:10043000E35AFF4FF0820B8FEA89FB89808180624B
:1004400007C0EE89FF896083E889F989808180642B
:10045000808381E090E0DF91CF911F910F91FF9019
:10046000EF900895CF93DF93EC01888D8823C1F03E
:10047000EA89FB89808185FD05C0A889B9898C91AD
:1004800086FD0EC00FB607FCF5CF808185FFF2CF49
:10049000A889B9898C9185FFEDCFCE017CDFE8CFAB
:1004A000DF91CF91089580E090E0892B19F06ADF09
:1004B000811125C080E090E0892B41F080E090E040
:1004C000892B21F00E94000081111CC080E090E087
:1004D000892B41F080E090E0892B21F00E94000000
:1004E000811113C080E090E0892BA1F080E090E0C2
:1004F000892B81F00E94000081110AC008950E949A
:100500000000D8CF0E940000E1CF0E940000EACF97
:100510000C9400000895362F90E0FC01E45DFE4F3E
:100520004491FC01E451FE4F2491FC01EA55FE4F39
:100530009491992309F46AC0442309F454C050E00B
:10054000FA013197E231F10508F04DC08827EE58E5
:10055000FF4F8F4F6CC6809180008F7707C08091CE
:1005600080008F7D03C080918000877F8093800012
:100570003AC084B58F7702C084B58F7D84BD33C007
:100580008091B0008F7703C08091B0008F7D809301
:10059000B00029C0809190008F7707C080919000B3
:1005A0008F7D03C080919000877F809390001BC057
:1005B0008091A0008F7707C08091A0008F7D03C03D
:1005C0008091A000877F8093A0000DC080912001C2
:1005D0008F7707C0809120018F7D03C0809120011B
:1005E000877F80932001E92FF0E0EE0FFF1FEE5888
:1005F000FE4FA591B4918FB7F894EC91311103C0DF
:1006000020952E2301C02E2B2C938FBF08951F936E
:10061000CF93DF93182FEB013DDE209711F460E0BC
:1006200004C0CF3FD10531F461E0812FDF91CF913C
:100630001F9171CFE12FF0E0E45DFE4FE4914E2F6A
:1006400050E0FA013197E231F10508F09CC08827AB
:10065000EC57FF4F8F4FEBC584B5806884BDC7BD95
:1006600097C084B5806284BDC8BD92C0809180006F
:10067000806880938000D0938900C093880088C0F0
:1006800080918000806280938000D0938B00C09323
:100690008A007EC080918000886080938000D09323
:1006A0008D00C0938C0074C08091B00080688093EE
:1006B000B000C093B3006CC08091B00080628093A2
:1006C000B000C093B40064C08091900080688093B3
:1006D0009000D0939900C09398005AC080919000E8
:1006E000806280939000D0939B00C0939A0050C08A
:1006F00080919000886080939000D0939D00C0937B
:100700009C0046C08091A00080688093A0008091EA
:10071000A0008F7B8093A000D093A900C093A80075
:1007200037C08091A00080628093A000D093AB007E
:10073000C093AA002DC08091A00088608093A00083
:10074000D093AD00C093AC0023C08091200180689D
:1007500080932001D0932901C093280119C0809172
:100760002001806280932001D0932B01C0932A0145
:100770000FC080912001886080932001D0932D01CB
:10078000C0932C0105C0C038D1050CF04DCF47CF28
:10079000DF91CF911F910895863308F08653909191
:1007A0007B00282F2870977F922B90937B00877077
:1007B000806480937C0080917A00806480937A00CA
:1007C00080917A0086FDFCCF80917800209179009D
:1007D00090E0922B089585ED8093BC008091BC0041
:1007E00084FDFCCF1092C302089540919D02262FF4
:1007F00030E0240F311D21323105DCF42091C30299
:100800002430C9F4FC0180E090E0861758F4309160
:100810009D022191DC01A558BD4FA30FB11D2C9362
:100820000196F3CF80919D02680F60939D0280E056
:10083000089581E0089582E0089508958FEF9FEF75
:1008400008958FEF9FEF089580917A0290E091953F
:10085000819591090895CF93DF931F921F92CDB791
:10086000DEB7CB01642F49835A83BFDF4981842FD0
:100870005A81952F0F900F90DF91CF910895CF93CC
:10088000DF931F92CDB7DEB7698361E0CE01019699
:10089000ACDF81E090E00F90DF91CF91089520913F
:1008A000EF023091F00282179307C1F02091ED0220
:1008B0003091EE0282179307A1F02091EB02309164
:1008C000EC028217930781F02091E9023091EA024D
:1008D0008217930761F080E090E0089581E090E056
:1008E000089582E090E0089583E090E0089584E028
:1008F00090E00895009761F0FC0101900020E9F775
:100900003197AF01481B590BBC018CEF92E0E1CC51
:1009100080E090E008950F931F93CF93DF938B01B6
:10092000EA012230310501F184F42115310591F1FC
:100930002130310509F035C0BC0182E068DEB80124
:1009400083E065DEBE0184E017C023303105C9F0C5
:100950002430310531F5BC018BE059DEB8018CE063
:1009600056DEBE018DE008C0BC0185E050DEB80156
:1009700086E04DDEBE0187E0DF91CF911F910F91A0
:1009800046CEBC0188E043DEB80189E040DEBE010E
:100990008AE0F2CF80E292E0DF91CF911F910F9138
:1009A000A9CFDF91CF911F910F9108958F929F92C0
:1009B000AF92BF92CF92DF92EF92FF920F931F936D
:1009C000CF93DF93CDB7DEB7A1970FB6F894DEBF14
:1009D0000FBECDBF6C01990FEE08FF08F7FE2FC0C8
:1009E000E091FC02F091FD020190F081E02D6DE2BA
:1009F0008CEF92E019958C0122273327A9012C193D
:100A00003D094E095F0919A2CE0181967C019AE049
:100A1000892E912CA12CB12CCA01B901A5019401F8
:100A2000E4D3605DF70162937F0121153105410533
:100A3000510591F7CF015EDF080F191F1CC0A701F8
:100A4000960119A28E010F5D1F4F8AE0C82ED12C8E
:100A5000E12CF12CCA01B901A7019601C6D3605D52
:100A6000F80162938F01211531054105510591F778
:100A7000CF0140DF8C018FE692E03CDF800F911FB9
:100A8000A1960FB6F894DEBF0FBECDBFDF91CF9118
:100A90001F910F91FF90EF90DF90CF90BF90AF909C
:100AA0009F908F900895F2D41F920F920FB60F92DD
:100AB00011242F933F938F939F93AF93BF93809174
:100AC000F8029091F902A091FA02B091FB023091E4
:100AD000F70223E0230F2D3720F40196A11DB11D4D
:100AE00005C026E8230F0296A11DB11D2093F70231
:100AF0008093F8029093F902A093FA02B093FB025C
:100B00008091F3029091F402A091F502B091F60267
:100B10000196A11DB11D8093F3029093F402A0935E
:100B2000F502B093F602BF91AF919F918F913F91E3
:100B30002F910F900FBE0F901F9018951F920F923C
:100B40000FB60F9211240BB60F922F933F934F9332
:100B50005F936F937F938F939F93AF93BF93EF9325
:100B6000FF938CEF92E017DCFF91EF91BF91AF9173
:100B70009F918F917F916F915F914F913F912F91B5
:100B80000F900BBE0F900FBE0F901F9018951F92E5
:100B90000F920FB60F9211240BB60F922F938F93D3
:100BA0009F93EF93FF93E0910C03F0910D038081ED
:100BB000E0911203F091130382FD12C090818091A5
:100BC00015038F5F8F7320911603821751F0E09108
:100BD0001503F0E0E450FD4F958F8093150301C09D
:100BE0008081FF91EF919F918F912F910F900BBE7C
:100BF0000F900FBE0F901F9018951F920F920FB677
:100C00000F9211240BB60F922F933F934F935F9344
:100C10006F937F938F939F93AF93BF93EF93FF93C4
:100C20008091B900887F803609F49CC068F58832CD
:100C300009F45BC090F4803109F454C038F488237F
:100C400009F4F6C0883009F44DC0F5C0883109F4C4
:100C50004CC0803209F45DC0EEC0803409F468C035
:100C600048F4803309F455C0883309F0E4C0809318
:100C7000C202D8C0803509F44FC0883509F45DC080
:100C8000883409F0D8C0D6C0883909F4C7C0A8F4A0
:100C9000883709F467C038F4883609F463C08037B0
:100CA00009F460C0C8C0883809F4B8C0803909F4B4
:100CB0005FC0803809F0BFC05BC0803B09F486C0CC
:100CC00038F4803A09F466C0883A09F47FC0B3C0AA
:100CD000803C09F4A7C0883C09F4A4C0883B09F40F
:100CE0008AC0A9C08091E80210C09091E70280916B
:100CF000E602981770F5E091E70281E08E0F80938D
:100D0000E702F0E0EA53FD4F80818093BB0085EC61
:100D100086C08093C2028EC0E091E70281E08E0F10
:100D20008093E7028091BB00F0E0EA53FD4F80839F
:100D30009091E7028091E6026EC0E091E70281E0C7
:100D40008E0F8093E7028091BB00F0E0EA53FD4FE5
:100D500080838091C50281116DC081E08093C402BF
:100D600084EA61C083E08093C3021092C102CFCFB6
:100D70008091C102803208F051C0E091C10281E04F
:100D80008E0F8093C1028091BB00F0E0EF55FD4FC4
:100D90008083BDCF85EC8093BC001092C30280910C
:100DA000C102803230F4E091C102F0E0EF55FD4F16
:100DB00010826091C10270E0E0919F02F091A00268
:100DC00081EA92E019951092C10235C084E08093C7
:100DD000C30210929E0210929D02E0919B02F0913C
:100DE0009C02199580919D02811105C081E080933C
:100DF0009D0210927B02E0919E0281E08E0F809313
:100E00009E02F0E0E558FD4F80818093BB009091F9
:100E10009E0280919D02981708F479CF85E880930F
:100E2000BC0009C085EC8093BC001092C30203C0D3
:100E30001092C202D0DCFF91EF91BF91AF919F91D0
:100E40008F917F916F915F914F913F912F910F9073
:100E50000BBE0F900FBE0F901F901895ECEFF2E0B5
:100E60001382128288EE93E0A0E0B0E08483958341
:100E7000A683B78324E032E03183208325EC30E081
:100E80003587248724EC30E03787268720EC30E054
:100E9000318B208B21EC30E0338B228B22EC30E045
:100EA000358B248B26EC30E0378B268B118E128EFF
:100EB000138E148EE9E9F3E0138212828483958302
:100EC000A683B78384E192E0918380830895CF93D2
:100ED000DF93CDB7DEB728970FB6F894DEBF0FBE0D
:100EE000CDBF789484B5826084BD84B5816084BDB3
:100EF00085B5826085BD85B5816085BD80916E00B8
:100F0000816080936E0010928100809181008260E8
:100F10008093810080918100816080938100809125
:100F200080008160809380008091B1008460809314
:100F3000B1008091B00081608093B00080919100F9
:100F400082608093910080919100816080939100F4
:100F5000809190008160809390008091A1008260D8
:100F60008093A1008091A10081608093A100809175
:100F7000A00081608093A000809121018260809315
:100F800021018091210181608093210180912001C4
:100F900081608093200180917A00846080937A0040
:100FA00080917A00826080937A0080917A008160DB
:100FB00080937A0080917A00806880937A00109202
:100FC000C100E0910C03F0910D0382E08083E09179
:100FD0000803F09109031082E0910A03F0910B03DA
:100FE0008FEC808310921403E0911003F0911103B1
:100FF00086E08083E0910E03F0910F038081806191
:101000008083E0910E03F0910F03808188608083DC
:10101000E0910E03F0910F03808180688083E0915E
:101020000E03F0910F0380818F7D808312E0812F6A
:1010300031D91F5F1E30D9F715E080E0ADDB9C0190
:10104000129FC001139F900D1124BC01990F880BB2
:10105000990B90D123E333E34BEC51E4F0D057D11B
:101060007093EC026093EB0281E096DB9C01129F8F
:10107000C001139F900D1124BC01990F880B990B8F
:1010800079D123E333E34BEC51E4D9D040D17093D1
:10109000EA026093E90282E07FDB9C01129FC001BB
:1010A000139F900D1124BC01990F880B990B62D1ED
:1010B00023E333E34BEC51E4C2D029D17093F00227
:1010C0006093EF0283E068DB9C01129FC001139FD5
:1010D000900D1124BC01990F880B990B4BD123E380
:1010E00033E34BEC51E4ABD012D17093EE0260933A
:1010F000ED0282E792E0FEDB8091EF029091F00238
:1011000055DC84E792E0F6DB8091ED029091EE02EF
:101110004DDC86E792E0EEDB8091ED029091EE02ED
:1011200045DC88E792E0E6DB8091ED029091EE02EB
:101130003DDC8091F1029091F2020196843091059C
:101140002CF49093F2028093F10204C01092F20208
:101150001092F1028091EF029091F0029A838983BC
:101160008091ED029091EE029C838B838091EB0243
:101170009091EC029E838D838091E9029091EA0226
:1011800098878F83E091F102F091F202EE0FFF1F3A
:1011900081E090E08C0F9D1FE80FF91F8081918105
:1011A0008C3221E09207FCF4883291059CF48C305B
:1011B00091054CF474DB9C0140E050E060E070E08D
:1011C0008FEF90E00FC06BDB9C014FEF50E060E0D1
:1011D00070E006C064DB9C0140E050E06FEF70E01F
:1011E00080E090E098DB5FD928CFA1E21A2EAA1BFD
:1011F000BB1BFD010DC0AA1FBB1FEE1FFF1FA217C7
:10120000B307E407F50720F0A21BB30BE40BF50BC3
:10121000661F771F881F991F1A9469F7609570954C
:10122000809590959B01AC01BD01CF010895EE0F13
:10123000FF1F881F8BBF0790F691E02D19940CD0EB
:10124000EBC0E3D040F0DAD030F021F45F3F19F08A
:10125000CCC0511115C1CFC0F0D098F39923C9F378
:101260005523B1F3951B550BBB27AA2762177307AC
:10127000840738F09F5F5F4F220F331F441FAA1F60
:10128000A9F333D00E2E3AF0E0E830D09150504020
:10129000E695001CCAF729D0FE2F27D0660F771FCE
:1012A000881FBB1F261737074807AB07B0E809F0B0
:1012B000BB0B802DBF01FF2793585F4F2AF09E3F45
:1012C000510568F092C0DCC05F3FECF3983EDCF360
:1012D000869577956795B795F7959F5FC9F7880FBE
:1012E000911D9695879597F90895E1E0660F771F10
:1012F000881FBB1F621773078407BA0720F0621BA1
:10130000730B840BBA0BEE1F88F7E095089504D099
:101310006894B111B5C0089598D088F09F5790F0A7
:10132000B92F9927B751A0F0D1F0660F771F881F0A
:10133000991F1AF0BA95C9F712C0B13081F09FD049
:10134000B1E008959CC0672F782F8827B85F39F0E7
:10135000B93FCCF3869577956795B395D9F73EF469
:1013600090958095709561957F4F8F4F9F4F089511
:10137000E89409C097FB3EF490958095709561952F
:101380007F4F8F4F9F4F9923A9F0F92F96E9BB27E5
:101390009395F695879577956795B795F111F8CF61
:1013A000FAF4BB0F11F460FF1BC06F5F7F4F8F4FCC
:1013B0009F4F16C0882311F096E911C0772321F0C2
:1013C0009EE8872F762F05C0662371F096E8862F5A
:1013D00070E060E02AF09A95660F771F881FDAF7B1
:1013E000880F9695879597F9089597F99F6780E8F4
:1013F00070E060E008959FEF80EC089500240A9467
:101400001616170618060906089500240A941216DF
:101410001306140605060895092E0394000C11F412
:10142000882352F0BB0F40F4BF2B11F460FF04C0BF
:101430006F5F7F4F8F4F9F4F089557FD9058440F18
:10144000551F59F05F3F71F04795880F97FB991F23
:1014500061F09F3F79F087950895121613061406E0
:10146000551FF2CF4695F1DF08C01616170618066D
:10147000991FF1CF86957105610508940895E89448
:10148000BB2766277727CB0197F9089581E090E085
:08149000F89400C0F894FFCFAE
:1014980000000000EC016901B6019401A8013202C4
:1014A800000000003F042B04240421041E041D0432
:1014B800536572696F75732070726F626C656D2108
:1014C800205468697320636173652073686F756C55
:1014D80064206E65766572206265207365656E208E
:1014E800616E6420697320666F722074657374205E
:1014F800707572706F736573206F6E6C7921000D53
:0A1508000A004100420043004400C5
:00000001FF
